{
  "_format": "hh-sol-artifact-1",
  "contractName": "ExampleNFT_D",
  "sourceName": "contracts/ExampleNFT_D.sol",
  "abi": [
    {
      "inputs": [],
      "stateMutability": "nonpayable",
      "type": "constructor"
    },
    {
      "anonymous": false,
      "inputs": [
        {
          "indexed": true,
          "internalType": "address",
          "name": "owner",
          "type": "address"
        },
        {
          "indexed": true,
          "internalType": "address",
          "name": "approved",
          "type": "address"
        },
        {
          "indexed": true,
          "internalType": "uint256",
          "name": "tokenId",
          "type": "uint256"
        }
      ],
      "name": "Approval",
      "type": "event"
    },
    {
      "anonymous": false,
      "inputs": [
        {
          "indexed": true,
          "internalType": "address",
          "name": "owner",
          "type": "address"
        },
        {
          "indexed": true,
          "internalType": "address",
          "name": "operator",
          "type": "address"
        },
        {
          "indexed": false,
          "internalType": "bool",
          "name": "approved",
          "type": "bool"
        }
      ],
      "name": "ApprovalForAll",
      "type": "event"
    },
    {
      "anonymous": false,
      "inputs": [
        {
          "indexed": true,
          "internalType": "address",
          "name": "previousOwner",
          "type": "address"
        },
        {
          "indexed": true,
          "internalType": "address",
          "name": "newOwner",
          "type": "address"
        }
      ],
      "name": "OwnershipTransferred",
      "type": "event"
    },
    {
      "anonymous": false,
      "inputs": [
        {
          "indexed": true,
          "internalType": "address",
          "name": "from",
          "type": "address"
        },
        {
          "indexed": true,
          "internalType": "address",
          "name": "to",
          "type": "address"
        },
        {
          "indexed": true,
          "internalType": "uint256",
          "name": "tokenId",
          "type": "uint256"
        }
      ],
      "name": "Transfer",
      "type": "event"
    },
    {
      "inputs": [
        {
          "internalType": "address",
          "name": "to",
          "type": "address"
        },
        {
          "internalType": "uint256",
          "name": "tokenId",
          "type": "uint256"
        }
      ],
      "name": "approve",
      "outputs": [],
      "stateMutability": "nonpayable",
      "type": "function"
    },
    {
      "inputs": [
        {
          "internalType": "address",
          "name": "owner",
          "type": "address"
        }
      ],
      "name": "balanceOf",
      "outputs": [
        {
          "internalType": "uint256",
          "name": "",
          "type": "uint256"
        }
      ],
      "stateMutability": "view",
      "type": "function"
    },
    {
      "inputs": [
        {
          "internalType": "uint256",
          "name": "tokenId",
          "type": "uint256"
        }
      ],
      "name": "getApproved",
      "outputs": [
        {
          "internalType": "address",
          "name": "",
          "type": "address"
        }
      ],
      "stateMutability": "view",
      "type": "function"
    },
    {
      "inputs": [
        {
          "internalType": "address",
          "name": "owner",
          "type": "address"
        },
        {
          "internalType": "address",
          "name": "operator",
          "type": "address"
        }
      ],
      "name": "isApprovedForAll",
      "outputs": [
        {
          "internalType": "bool",
          "name": "",
          "type": "bool"
        }
      ],
      "stateMutability": "view",
      "type": "function"
    },
    {
      "inputs": [],
      "name": "name",
      "outputs": [
        {
          "internalType": "string",
          "name": "",
          "type": "string"
        }
      ],
      "stateMutability": "view",
      "type": "function"
    },
    {
      "inputs": [],
      "name": "owner",
      "outputs": [
        {
          "internalType": "address",
          "name": "",
          "type": "address"
        }
      ],
      "stateMutability": "view",
      "type": "function"
    },
    {
      "inputs": [
        {
          "internalType": "uint256",
          "name": "tokenId",
          "type": "uint256"
        }
      ],
      "name": "ownerOf",
      "outputs": [
        {
          "internalType": "address",
          "name": "",
          "type": "address"
        }
      ],
      "stateMutability": "view",
      "type": "function"
    },
    {
      "inputs": [],
      "name": "renounceOwnership",
      "outputs": [],
      "stateMutability": "nonpayable",
      "type": "function"
    },
    {
      "inputs": [
        {
          "internalType": "address",
          "name": "to",
          "type": "address"
        }
      ],
      "name": "safeMint",
      "outputs": [],
      "stateMutability": "nonpayable",
      "type": "function"
    },
    {
      "inputs": [
        {
          "internalType": "address",
          "name": "from",
          "type": "address"
        },
        {
          "internalType": "address",
          "name": "to",
          "type": "address"
        },
        {
          "internalType": "uint256",
          "name": "tokenId",
          "type": "uint256"
        }
      ],
      "name": "safeTransferFrom",
      "outputs": [],
      "stateMutability": "nonpayable",
      "type": "function"
    },
    {
      "inputs": [
        {
          "internalType": "address",
          "name": "from",
          "type": "address"
        },
        {
          "internalType": "address",
          "name": "to",
          "type": "address"
        },
        {
          "internalType": "uint256",
          "name": "tokenId",
          "type": "uint256"
        },
        {
          "internalType": "bytes",
          "name": "_data",
          "type": "bytes"
        }
      ],
      "name": "safeTransferFrom",
      "outputs": [],
      "stateMutability": "nonpayable",
      "type": "function"
    },
    {
      "inputs": [
        {
          "internalType": "address",
          "name": "operator",
          "type": "address"
        },
        {
          "internalType": "bool",
          "name": "approved",
          "type": "bool"
        }
      ],
      "name": "setApprovalForAll",
      "outputs": [],
      "stateMutability": "nonpayable",
      "type": "function"
    },
    {
      "inputs": [
        {
          "internalType": "bytes4",
          "name": "interfaceId",
          "type": "bytes4"
        }
      ],
      "name": "supportsInterface",
      "outputs": [
        {
          "internalType": "bool",
          "name": "",
          "type": "bool"
        }
      ],
      "stateMutability": "view",
      "type": "function"
    },
    {
      "inputs": [],
      "name": "symbol",
      "outputs": [
        {
          "internalType": "string",
          "name": "",
          "type": "string"
        }
      ],
      "stateMutability": "view",
      "type": "function"
    },
    {
      "inputs": [
        {
          "internalType": "uint256",
          "name": "index",
          "type": "uint256"
        }
      ],
      "name": "tokenByIndex",
      "outputs": [
        {
          "internalType": "uint256",
          "name": "",
          "type": "uint256"
        }
      ],
      "stateMutability": "view",
      "type": "function"
    },
    {
      "inputs": [
        {
          "internalType": "address",
          "name": "owner",
          "type": "address"
        },
        {
          "internalType": "uint256",
          "name": "index",
          "type": "uint256"
        }
      ],
      "name": "tokenOfOwnerByIndex",
      "outputs": [
        {
          "internalType": "uint256",
          "name": "",
          "type": "uint256"
        }
      ],
      "stateMutability": "view",
      "type": "function"
    },
    {
      "inputs": [
        {
          "internalType": "uint256",
          "name": "tokenId",
          "type": "uint256"
        }
      ],
      "name": "tokenURI",
      "outputs": [
        {
          "internalType": "string",
          "name": "",
          "type": "string"
        }
      ],
      "stateMutability": "view",
      "type": "function"
    },
    {
      "inputs": [],
      "name": "totalSupply",
      "outputs": [
        {
          "internalType": "uint256",
          "name": "",
          "type": "uint256"
        }
      ],
      "stateMutability": "view",
      "type": "function"
    },
    {
      "inputs": [
        {
          "internalType": "address",
          "name": "from",
          "type": "address"
        },
        {
          "internalType": "address",
          "name": "to",
          "type": "address"
        },
        {
          "internalType": "uint256",
          "name": "tokenId",
          "type": "uint256"
        }
      ],
      "name": "transferFrom",
      "outputs": [],
      "stateMutability": "nonpayable",
      "type": "function"
    },
    {
      "inputs": [
        {
          "internalType": "address",
          "name": "newOwner",
          "type": "address"
        }
      ],
      "name": "transferOwnership",
      "outputs": [],
      "stateMutability": "nonpayable",
      "type": "function"
    }
  ],
  "bytecode": "0x60806040523480156200001157600080fd5b506040518060400160405280600c81526020017f4578616d706c654e46545f4400000000000000000000000000000000000000008152506040518060400160405280600681526020017f454e46545f440000000000000000000000000000000000000000000000000000815250816000908051906020019062000096929190620001a6565b508060019080519060200190620000af929190620001a6565b505050620000d2620000c6620000d860201b60201c565b620000e060201b60201c565b620002ba565b600033905090565b6000600a60009054906101000a900473ffffffffffffffffffffffffffffffffffffffff16905081600a60006101000a81548173ffffffffffffffffffffffffffffffffffffffff021916908373ffffffffffffffffffffffffffffffffffffffff1602179055508173ffffffffffffffffffffffffffffffffffffffff168173ffffffffffffffffffffffffffffffffffffffff167f8be0079c531659141344cd1fd0a4f28419497f9722a3daafe3b4186f6b6457e060405160405180910390a35050565b828054620001b49062000285565b90600052602060002090601f016020900481019282620001d8576000855562000224565b82601f10620001f357805160ff191683800117855562000224565b8280016001018555821562000224579182015b828111156200022357825182559160200191906001019062000206565b5b50905062000233919062000237565b5090565b5b808211156200025257600081600090555060010162000238565b5090565b7f4e487b7100000000000000000000000000000000000000000000000000000000600052602260045260246000fd5b600060028204905060018216806200029e57607f821691505b602082108103620002b457620002b362000256565b5b50919050565b61339880620002ca6000396000f3fe608060405234801561001057600080fd5b506004361061012c5760003560e01c80636352211e116100ad578063a22cb46511610071578063a22cb46514610343578063b88d4fde1461035f578063c87b56dd1461037b578063e985e9c5146103ab578063f2fde38b146103db5761012c565b80636352211e1461029d57806370a08231146102cd578063715018a6146102fd5780638da5cb5b1461030757806395d89b41146103255761012c565b806323b872dd116100f457806323b872dd146101e95780632f745c591461020557806340d097c31461023557806342842e0e146102515780634f6ccce71461026d5761012c565b806301ffc9a71461013157806306fdde0314610161578063081812fc1461017f578063095ea7b3146101af57806318160ddd146101cb575b600080fd5b61014b600480360381019061014691906120cc565b6103f7565b6040516101589190612114565b60405180910390f35b610169610409565b60405161017691906121c8565b60405180910390f35b61019960048036038101906101949190612220565b61049b565b6040516101a6919061228e565b60405180910390f35b6101c960048036038101906101c491906122d5565b610520565b005b6101d3610637565b6040516101e09190612324565b60405180910390f35b61020360048036038101906101fe919061233f565b610644565b005b61021f600480360381019061021a91906122d5565b6106a4565b60405161022c9190612324565b60405180910390f35b61024f600480360381019061024a9190612392565b610749565b005b61026b6004803603810190610266919061233f565b6107eb565b005b61028760048036038101906102829190612220565b61080b565b6040516102949190612324565b60405180910390f35b6102b760048036038101906102b29190612220565b61087c565b6040516102c4919061228e565b60405180910390f35b6102e760048036038101906102e29190612392565b61092d565b6040516102f49190612324565b60405180910390f35b6103056109e4565b005b61030f610a6c565b60405161031c919061228e565b60405180910390f35b61032d610a96565b60405161033a91906121c8565b60405180910390f35b61035d600480360381019061035891906123eb565b610b28565b005b61037960048036038101906103749190612560565b610b3e565b005b61039560048036038101906103909190612220565b610ba0565b6040516103a291906121c8565b60405180910390f35b6103c560048036038101906103c091906125e3565b610c47565b6040516103d29190612114565b60405180910390f35b6103f560048036038101906103f09190612392565b610cdb565b005b600061040282610dd2565b9050919050565b60606000805461041890612652565b80601f016020809104026020016040519081016040528092919081815260200182805461044490612652565b80156104915780601f1061046657610100808354040283529160200191610491565b820191906000526020600020905b81548152906001019060200180831161047457829003601f168201915b5050505050905090565b60006104a682610e4c565b6104e5576040517f08c379a00000000000000000000000000000000000000000000000000000000081526004016104dc906126f5565b60405180910390fd5b6004600083815260200190815260200160002060009054906101000a900473ffffffffffffffffffffffffffffffffffffffff169050919050565b600061052b8261087c565b90508073ffffffffffffffffffffffffffffffffffffffff168373ffffffffffffffffffffffffffffffffffffffff160361059b576040517f08c379a000000000000000000000000000000000000000000000000000000000815260040161059290612787565b60405180910390fd5b8073ffffffffffffffffffffffffffffffffffffffff166105ba610eb8565b73ffffffffffffffffffffffffffffffffffffffff1614806105e957506105e8816105e3610eb8565b610c47565b5b610628576040517f08c379a000000000000000000000000000000000000000000000000000000000815260040161061f90612819565b60405180910390fd5b6106328383610ec0565b505050565b6000600880549050905090565b61065561064f610eb8565b82610f79565b610694576040517f08c379a000000000000000000000000000000000000000000000000000000000815260040161068b906128ab565b60405180910390fd5b61069f838383611057565b505050565b60006106af8361092d565b82106106f0576040517f08c379a00000000000000000000000000000000000000000000000000000000081526004016106e79061293d565b60405180910390fd5b600660008473ffffffffffffffffffffffffffffffffffffffff1673ffffffffffffffffffffffffffffffffffffffff168152602001908152602001600020600083815260200190815260200160002054905092915050565b610751610eb8565b73ffffffffffffffffffffffffffffffffffffffff1661076f610a6c565b73ffffffffffffffffffffffffffffffffffffffff16146107c5576040517f08c379a00000000000000000000000000000000000000000000000000000000081526004016107bc906129a9565b60405180910390fd5b60006107d1600b6112bd565b90506107dd600b6112cb565b6107e782826112e1565b5050565b61080683838360405180602001604052806000815250610b3e565b505050565b6000610815610637565b8210610856576040517f08c379a000000000000000000000000000000000000000000000000000000000815260040161084d90612a3b565b60405180910390fd5b6008828154811061086a57610869612a5b565b5b90600052602060002001549050919050565b6000806002600084815260200190815260200160002060009054906101000a900473ffffffffffffffffffffffffffffffffffffffff169050600073ffffffffffffffffffffffffffffffffffffffff168173ffffffffffffffffffffffffffffffffffffffff1603610924576040517f08c379a000000000000000000000000000000000000000000000000000000000815260040161091b90612afc565b60405180910390fd5b80915050919050565b60008073ffffffffffffffffffffffffffffffffffffffff168273ffffffffffffffffffffffffffffffffffffffff160361099d576040517f08c379a000000000000000000000000000000000000000000000000000000000815260040161099490612b8e565b60405180910390fd5b600360008373ffffffffffffffffffffffffffffffffffffffff1673ffffffffffffffffffffffffffffffffffffffff168152602001908152602001600020549050919050565b6109ec610eb8565b73ffffffffffffffffffffffffffffffffffffffff16610a0a610a6c565b73ffffffffffffffffffffffffffffffffffffffff1614610a60576040517f08c379a0000000000000000000000000000000000000000000000000000000008152600401610a57906129a9565b60405180910390fd5b610a6a60006112ff565b565b6000600a60009054906101000a900473ffffffffffffffffffffffffffffffffffffffff16905090565b606060018054610aa590612652565b80601f0160208091040260200160405190810160405280929190818152602001828054610ad190612652565b8015610b1e5780601f10610af357610100808354040283529160200191610b1e565b820191906000526020600020905b815481529060010190602001808311610b0157829003601f168201915b5050505050905090565b610b3a610b33610eb8565b83836113c5565b5050565b610b4f610b49610eb8565b83610f79565b610b8e576040517f08c379a0000000000000000000000000000000000000000000000000000000008152600401610b85906128ab565b60405180910390fd5b610b9a84848484611531565b50505050565b6060610bab82610e4c565b610bea576040517f08c379a0000000000000000000000000000000000000000000000000000000008152600401610be190612c20565b60405180910390fd5b6000610bf461158d565b90506000815111610c145760405180602001604052806000815250610c3f565b80610c1e846115a4565b604051602001610c2f929190612c7c565b6040516020818303038152906040525b915050919050565b6000600560008473ffffffffffffffffffffffffffffffffffffffff1673ffffffffffffffffffffffffffffffffffffffff16815260200190815260200160002060008373ffffffffffffffffffffffffffffffffffffffff1673ffffffffffffffffffffffffffffffffffffffff16815260200190815260200160002060009054906101000a900460ff16905092915050565b610ce3610eb8565b73ffffffffffffffffffffffffffffffffffffffff16610d01610a6c565b73ffffffffffffffffffffffffffffffffffffffff1614610d57576040517f08c379a0000000000000000000000000000000000000000000000000000000008152600401610d4e906129a9565b60405180910390fd5b600073ffffffffffffffffffffffffffffffffffffffff168173ffffffffffffffffffffffffffffffffffffffff1603610dc6576040517f08c379a0000000000000000000000000000000000000000000000000000000008152600401610dbd90612d12565b60405180910390fd5b610dcf816112ff565b50565b60007f780e9d63000000000000000000000000000000000000000000000000000000007bffffffffffffffffffffffffffffffffffffffffffffffffffffffff1916827bffffffffffffffffffffffffffffffffffffffffffffffffffffffff19161480610e455750610e4482611704565b5b9050919050565b60008073ffffffffffffffffffffffffffffffffffffffff166002600084815260200190815260200160002060009054906101000a900473ffffffffffffffffffffffffffffffffffffffff1673ffffffffffffffffffffffffffffffffffffffff1614159050919050565b600033905090565b816004600083815260200190815260200160002060006101000a81548173ffffffffffffffffffffffffffffffffffffffff021916908373ffffffffffffffffffffffffffffffffffffffff160217905550808273ffffffffffffffffffffffffffffffffffffffff16610f338361087c565b73ffffffffffffffffffffffffffffffffffffffff167f8c5be1e5ebec7d5bd14f71427d1e84f3dd0314c0f7b2291e5b200ac8c7c3b92560405160405180910390a45050565b6000610f8482610e4c565b610fc3576040517f08c379a0000000000000000000000000000000000000000000000000000000008152600401610fba90612da4565b60405180910390fd5b6000610fce8361087c565b90508073ffffffffffffffffffffffffffffffffffffffff168473ffffffffffffffffffffffffffffffffffffffff161480611010575061100f8185610c47565b5b8061104e57508373ffffffffffffffffffffffffffffffffffffffff166110368461049b565b73ffffffffffffffffffffffffffffffffffffffff16145b91505092915050565b8273ffffffffffffffffffffffffffffffffffffffff166110778261087c565b73ffffffffffffffffffffffffffffffffffffffff16146110cd576040517f08c379a00000000000000000000000000000000000000000000000000000000081526004016110c490612e36565b60405180910390fd5b600073ffffffffffffffffffffffffffffffffffffffff168273ffffffffffffffffffffffffffffffffffffffff160361113c576040517f08c379a000000000000000000000000000000000000000000000000000000000815260040161113390612ec8565b60405180910390fd5b6111478383836117e6565b611152600082610ec0565b6001600360008573ffffffffffffffffffffffffffffffffffffffff1673ffffffffffffffffffffffffffffffffffffffff16815260200190815260200160002060008282546111a29190612f17565b925050819055506001600360008473ffffffffffffffffffffffffffffffffffffffff1673ffffffffffffffffffffffffffffffffffffffff16815260200190815260200160002060008282546111f99190612f4b565b92505081905550816002600083815260200190815260200160002060006101000a81548173ffffffffffffffffffffffffffffffffffffffff021916908373ffffffffffffffffffffffffffffffffffffffff160217905550808273ffffffffffffffffffffffffffffffffffffffff168473ffffffffffffffffffffffffffffffffffffffff167fddf252ad1be2c89b69c2b068fc378daa952ba7f163c4a11628f55a4df523b3ef60405160405180910390a46112b88383836117f6565b505050565b600081600001549050919050565b6001816000016000828254019250508190555050565b6112fb8282604051806020016040528060008152506117fb565b5050565b6000600a60009054906101000a900473ffffffffffffffffffffffffffffffffffffffff16905081600a60006101000a81548173ffffffffffffffffffffffffffffffffffffffff021916908373ffffffffffffffffffffffffffffffffffffffff1602179055508173ffffffffffffffffffffffffffffffffffffffff168173ffffffffffffffffffffffffffffffffffffffff167f8be0079c531659141344cd1fd0a4f28419497f9722a3daafe3b4186f6b6457e060405160405180910390a35050565b8173ffffffffffffffffffffffffffffffffffffffff168373ffffffffffffffffffffffffffffffffffffffff1603611433576040517f08c379a000000000000000000000000000000000000000000000000000000000815260040161142a90612fed565b60405180910390fd5b80600560008573ffffffffffffffffffffffffffffffffffffffff1673ffffffffffffffffffffffffffffffffffffffff16815260200190815260200160002060008473ffffffffffffffffffffffffffffffffffffffff1673ffffffffffffffffffffffffffffffffffffffff16815260200190815260200160002060006101000a81548160ff0219169083151502179055508173ffffffffffffffffffffffffffffffffffffffff168373ffffffffffffffffffffffffffffffffffffffff167f17307eab39ab6107e8899845ad3d59bd9653f200f220920489ca2b5937696c31836040516115249190612114565b60405180910390a3505050565b61153c848484611057565b61154884848484611856565b611587576040517f08c379a000000000000000000000000000000000000000000000000000000000815260040161157e9061307f565b60405180910390fd5b50505050565b606060405180602001604052806000815250905090565b6060600082036115eb576040518060400160405280600181526020017f300000000000000000000000000000000000000000000000000000000000000081525090506116ff565b600082905060005b6000821461161d5780806116069061309f565b915050600a826116169190613116565b91506115f3565b60008167ffffffffffffffff81111561163957611638612435565b5b6040519080825280601f01601f19166020018201604052801561166b5781602001600182028036833780820191505090505b5090505b600085146116f8576001826116849190612f17565b9150600a856116939190613147565b603061169f9190612f4b565b60f81b8183815181106116b5576116b4612a5b565b5b60200101907effffffffffffffffffffffffffffffffffffffffffffffffffffffffffffff1916908160001a905350600a856116f19190613116565b945061166f565b8093505050505b919050565b60007f80ac58cd000000000000000000000000000000000000000000000000000000007bffffffffffffffffffffffffffffffffffffffffffffffffffffffff1916827bffffffffffffffffffffffffffffffffffffffffffffffffffffffff191614806117cf57507f5b5e139f000000000000000000000000000000000000000000000000000000007bffffffffffffffffffffffffffffffffffffffffffffffffffffffff1916827bffffffffffffffffffffffffffffffffffffffffffffffffffffffff1916145b806117df57506117de826119dd565b5b9050919050565b6117f1838383611a47565b505050565b505050565b6118058383611b59565b6118126000848484611856565b611851576040517f08c379a00000000000000000000000000000000000000000000000000000000081526004016118489061307f565b60405180910390fd5b505050565b60006118778473ffffffffffffffffffffffffffffffffffffffff16611d32565b156119d0578373ffffffffffffffffffffffffffffffffffffffff1663150b7a026118a0610eb8565b8786866040518563ffffffff1660e01b81526004016118c294939291906131cd565b6020604051808303816000875af19250505080156118fe57506040513d601f19601f820116820180604052508101906118fb919061322e565b60015b611980573d806000811461192e576040519150601f19603f3d011682016040523d82523d6000602084013e611933565b606091505b506000815103611978576040517f08c379a000000000000000000000000000000000000000000000000000000000815260040161196f9061307f565b60405180910390fd5b805181602001fd5b63150b7a0260e01b7bffffffffffffffffffffffffffffffffffffffffffffffffffffffff1916817bffffffffffffffffffffffffffffffffffffffffffffffffffffffff1916149150506119d5565b600190505b949350505050565b60007f01ffc9a7000000000000000000000000000000000000000000000000000000007bffffffffffffffffffffffffffffffffffffffffffffffffffffffff1916827bffffffffffffffffffffffffffffffffffffffffffffffffffffffff1916149050919050565b611a52838383611d55565b600073ffffffffffffffffffffffffffffffffffffffff168373ffffffffffffffffffffffffffffffffffffffff1603611a9457611a8f81611d5a565b611ad3565b8173ffffffffffffffffffffffffffffffffffffffff168373ffffffffffffffffffffffffffffffffffffffff1614611ad257611ad18382611da3565b5b5b600073ffffffffffffffffffffffffffffffffffffffff168273ffffffffffffffffffffffffffffffffffffffff1603611b1557611b1081611f10565b611b54565b8273ffffffffffffffffffffffffffffffffffffffff168273ffffffffffffffffffffffffffffffffffffffff1614611b5357611b528282611fe1565b5b5b505050565b600073ffffffffffffffffffffffffffffffffffffffff168273ffffffffffffffffffffffffffffffffffffffff1603611bc8576040517f08c379a0000000000000000000000000000000000000000000000000000000008152600401611bbf906132a7565b60405180910390fd5b611bd181610e4c565b15611c11576040517f08c379a0000000000000000000000000000000000000000000000000000000008152600401611c0890613313565b60405180910390fd5b611c1d600083836117e6565b6001600360008473ffffffffffffffffffffffffffffffffffffffff1673ffffffffffffffffffffffffffffffffffffffff1681526020019081526020016000206000828254611c6d9190612f4b565b92505081905550816002600083815260200190815260200160002060006101000a81548173ffffffffffffffffffffffffffffffffffffffff021916908373ffffffffffffffffffffffffffffffffffffffff160217905550808273ffffffffffffffffffffffffffffffffffffffff16600073ffffffffffffffffffffffffffffffffffffffff167fddf252ad1be2c89b69c2b068fc378daa952ba7f163c4a11628f55a4df523b3ef60405160405180910390a4611d2e600083836117f6565b5050565b6000808273ffffffffffffffffffffffffffffffffffffffff163b119050919050565b505050565b6008805490506009600083815260200190815260200160002081905550600881908060018154018082558091505060019003906000526020600020016000909190919091505550565b60006001611db08461092d565b611dba9190612f17565b9050600060076000848152602001908152602001600020549050818114611e9f576000600660008673ffffffffffffffffffffffffffffffffffffffff1673ffffffffffffffffffffffffffffffffffffffff168152602001908152602001600020600084815260200190815260200160002054905080600660008773ffffffffffffffffffffffffffffffffffffffff1673ffffffffffffffffffffffffffffffffffffffff168152602001908152602001600020600084815260200190815260200160002081905550816007600083815260200190815260200160002081905550505b6007600084815260200190815260200160002060009055600660008573ffffffffffffffffffffffffffffffffffffffff1673ffffffffffffffffffffffffffffffffffffffff16815260200190815260200160002060008381526020019081526020016000206000905550505050565b60006001600880549050611f249190612f17565b9050600060096000848152602001908152602001600020549050600060088381548110611f5457611f53612a5b565b5b906000526020600020015490508060088381548110611f7657611f75612a5b565b5b906000526020600020018190555081600960008381526020019081526020016000208190555060096000858152602001908152602001600020600090556008805480611fc557611fc4613333565b5b6001900381819060005260206000200160009055905550505050565b6000611fec8361092d565b905081600660008573ffffffffffffffffffffffffffffffffffffffff1673ffffffffffffffffffffffffffffffffffffffff168152602001908152602001600020600083815260200190815260200160002081905550806007600084815260200190815260200160002081905550505050565b6000604051905090565b600080fd5b600080fd5b60007fffffffff0000000000000000000000000000000000000000000000000000000082169050919050565b6120a981612074565b81146120b457600080fd5b50565b6000813590506120c6816120a0565b92915050565b6000602082840312156120e2576120e161206a565b5b60006120f0848285016120b7565b91505092915050565b60008115159050919050565b61210e816120f9565b82525050565b60006020820190506121296000830184612105565b92915050565b600081519050919050565b600082825260208201905092915050565b60005b8381101561216957808201518184015260208101905061214e565b83811115612178576000848401525b50505050565b6000601f19601f8301169050919050565b600061219a8261212f565b6121a4818561213a565b93506121b481856020860161214b565b6121bd8161217e565b840191505092915050565b600060208201905081810360008301526121e2818461218f565b905092915050565b6000819050919050565b6121fd816121ea565b811461220857600080fd5b50565b60008135905061221a816121f4565b92915050565b6000602082840312156122365761223561206a565b5b60006122448482850161220b565b91505092915050565b600073ffffffffffffffffffffffffffffffffffffffff82169050919050565b60006122788261224d565b9050919050565b6122888161226d565b82525050565b60006020820190506122a3600083018461227f565b92915050565b6122b28161226d565b81146122bd57600080fd5b50565b6000813590506122cf816122a9565b92915050565b600080604083850312156122ec576122eb61206a565b5b60006122fa858286016122c0565b925050602061230b8582860161220b565b9150509250929050565b61231e816121ea565b82525050565b60006020820190506123396000830184612315565b92915050565b6000806000606084860312156123585761235761206a565b5b6000612366868287016122c0565b9350506020612377868287016122c0565b92505060406123888682870161220b565b9150509250925092565b6000602082840312156123a8576123a761206a565b5b60006123b6848285016122c0565b91505092915050565b6123c8816120f9565b81146123d357600080fd5b50565b6000813590506123e5816123bf565b92915050565b600080604083850312156124025761240161206a565b5b6000612410858286016122c0565b9250506020612421858286016123d6565b9150509250929050565b600080fd5b600080fd5b7f4e487b7100000000000000000000000000000000000000000000000000000000600052604160045260246000fd5b61246d8261217e565b810181811067ffffffffffffffff8211171561248c5761248b612435565b5b80604052505050565b600061249f612060565b90506124ab8282612464565b919050565b600067ffffffffffffffff8211156124cb576124ca612435565b5b6124d48261217e565b9050602081019050919050565b82818337600083830152505050565b60006125036124fe846124b0565b612495565b90508281526020810184848401111561251f5761251e612430565b5b61252a8482856124e1565b509392505050565b600082601f8301126125475761254661242b565b5b81356125578482602086016124f0565b91505092915050565b6000806000806080858703121561257a5761257961206a565b5b6000612588878288016122c0565b9450506020612599878288016122c0565b93505060406125aa8782880161220b565b925050606085013567ffffffffffffffff8111156125cb576125ca61206f565b5b6125d787828801612532565b91505092959194509250565b600080604083850312156125fa576125f961206a565b5b6000612608858286016122c0565b9250506020612619858286016122c0565b9150509250929050565b7f4e487b7100000000000000000000000000000000000000000000000000000000600052602260045260246000fd5b6000600282049050600182168061266a57607f821691505b60208210810361267d5761267c612623565b5b50919050565b7f4552433732313a20617070726f76656420717565727920666f72206e6f6e657860008201527f697374656e7420746f6b656e0000000000000000000000000000000000000000602082015250565b60006126df602c8361213a565b91506126ea82612683565b604082019050919050565b6000602082019050818103600083015261270e816126d2565b9050919050565b7f4552433732313a20617070726f76616c20746f2063757272656e74206f776e6560008201527f7200000000000000000000000000000000000000000000000000000000000000602082015250565b600061277160218361213a565b915061277c82612715565b604082019050919050565b600060208201905081810360008301526127a081612764565b9050919050565b7f4552433732313a20617070726f76652063616c6c6572206973206e6f74206f7760008201527f6e6572206e6f7220617070726f76656420666f7220616c6c0000000000000000602082015250565b600061280360388361213a565b915061280e826127a7565b604082019050919050565b60006020820190508181036000830152612832816127f6565b9050919050565b7f4552433732313a207472616e736665722063616c6c6572206973206e6f74206f60008201527f776e6572206e6f7220617070726f766564000000000000000000000000000000602082015250565b600061289560318361213a565b91506128a082612839565b604082019050919050565b600060208201905081810360008301526128c481612888565b9050919050565b7f455243373231456e756d657261626c653a206f776e657220696e646578206f7560008201527f74206f6620626f756e6473000000000000000000000000000000000000000000602082015250565b6000612927602b8361213a565b9150612932826128cb565b604082019050919050565b600060208201905081810360008301526129568161291a565b9050919050565b7f4f776e61626c653a2063616c6c6572206973206e6f7420746865206f776e6572600082015250565b600061299360208361213a565b915061299e8261295d565b602082019050919050565b600060208201905081810360008301526129c281612986565b9050919050565b7f455243373231456e756d657261626c653a20676c6f62616c20696e646578206f60008201527f7574206f6620626f756e64730000000000000000000000000000000000000000602082015250565b6000612a25602c8361213a565b9150612a30826129c9565b604082019050919050565b60006020820190508181036000830152612a5481612a18565b9050919050565b7f4e487b7100000000000000000000000000000000000000000000000000000000600052603260045260246000fd5b7f4552433732313a206f776e657220717565727920666f72206e6f6e657869737460008201527f656e7420746f6b656e0000000000000000000000000000000000000000000000602082015250565b6000612ae660298361213a565b9150612af182612a8a565b604082019050919050565b60006020820190508181036000830152612b1581612ad9565b9050919050565b7f4552433732313a2062616c616e636520717565727920666f7220746865207a6560008201527f726f206164647265737300000000000000000000000000000000000000000000602082015250565b6000612b78602a8361213a565b9150612b8382612b1c565b604082019050919050565b60006020820190508181036000830152612ba781612b6b565b9050919050565b7f4552433732314d657461646174613a2055524920717565727920666f72206e6f60008201527f6e6578697374656e7420746f6b656e0000000000000000000000000000000000602082015250565b6000612c0a602f8361213a565b9150612c1582612bae565b604082019050919050565b60006020820190508181036000830152612c3981612bfd565b9050919050565b600081905092915050565b6000612c568261212f565b612c608185612c40565b9350612c7081856020860161214b565b80840191505092915050565b6000612c888285612c4b565b9150612c948284612c4b565b91508190509392505050565b7f4f776e61626c653a206e6577206f776e657220697320746865207a65726f206160008201527f6464726573730000000000000000000000000000000000000000000000000000602082015250565b6000612cfc60268361213a565b9150612d0782612ca0565b604082019050919050565b60006020820190508181036000830152612d2b81612cef565b9050919050565b7f4552433732313a206f70657261746f7220717565727920666f72206e6f6e657860008201527f697374656e7420746f6b656e0000000000000000000000000000000000000000602082015250565b6000612d8e602c8361213a565b9150612d9982612d32565b604082019050919050565b60006020820190508181036000830152612dbd81612d81565b9050919050565b7f4552433732313a207472616e736665722066726f6d20696e636f72726563742060008201527f6f776e6572000000000000000000000000000000000000000000000000000000602082015250565b6000612e2060258361213a565b9150612e2b82612dc4565b604082019050919050565b60006020820190508181036000830152612e4f81612e13565b9050919050565b7f4552433732313a207472616e7366657220746f20746865207a65726f2061646460008201527f7265737300000000000000000000000000000000000000000000000000000000602082015250565b6000612eb260248361213a565b9150612ebd82612e56565b604082019050919050565b60006020820190508181036000830152612ee181612ea5565b9050919050565b7f4e487b7100000000000000000000000000000000000000000000000000000000600052601160045260246000fd5b6000612f22826121ea565b9150612f2d836121ea565b925082821015612f4057612f3f612ee8565b5b828203905092915050565b6000612f56826121ea565b9150612f61836121ea565b9250827fffffffffffffffffffffffffffffffffffffffffffffffffffffffffffffffff03821115612f9657612f95612ee8565b5b828201905092915050565b7f4552433732313a20617070726f766520746f2063616c6c657200000000000000600082015250565b6000612fd760198361213a565b9150612fe282612fa1565b602082019050919050565b6000602082019050818103600083015261300681612fca565b9050919050565b7f4552433732313a207472616e7366657220746f206e6f6e20455243373231526560008201527f63656976657220696d706c656d656e7465720000000000000000000000000000602082015250565b600061306960328361213a565b91506130748261300d565b604082019050919050565b600060208201905081810360008301526130988161305c565b9050919050565b60006130aa826121ea565b91507fffffffffffffffffffffffffffffffffffffffffffffffffffffffffffffffff82036130dc576130db612ee8565b5b600182019050919050565b7f4e487b7100000000000000000000000000000000000000000000000000000000600052601260045260246000fd5b6000613121826121ea565b915061312c836121ea565b92508261313c5761313b6130e7565b5b828204905092915050565b6000613152826121ea565b915061315d836121ea565b92508261316d5761316c6130e7565b5b828206905092915050565b600081519050919050565b600082825260208201905092915050565b600061319f82613178565b6131a98185613183565b93506131b981856020860161214b565b6131c28161217e565b840191505092915050565b60006080820190506131e2600083018761227f565b6131ef602083018661227f565b6131fc6040830185612315565b818103606083015261320e8184613194565b905095945050505050565b600081519050613228816120a0565b92915050565b6000602082840312156132445761324361206a565b5b600061325284828501613219565b91505092915050565b7f4552433732313a206d696e7420746f20746865207a65726f2061646472657373600082015250565b600061329160208361213a565b915061329c8261325b565b602082019050919050565b600060208201905081810360008301526132c081613284565b9050919050565b7f4552433732313a20746f6b656e20616c7265616479206d696e74656400000000600082015250565b60006132fd601c8361213a565b9150613308826132c7565b602082019050919050565b6000602082019050818103600083015261332c816132f0565b9050919050565b7f4e487b7100000000000000000000000000000000000000000000000000000000600052603160045260246000fdfea2646970667358221220b3c9fdcc824a1be64abc1b27c8cffcad9f83fa5a52a53a0e2e7aacaeddb670e164736f6c634300080e0033",
  "linkReferences": {},
  "deployedLinkReferences": {}
}