{
  "_format": "hh-sol-artifact-1",
  "contractName": "LuckyNftSwap",
  "sourceName": "contracts/LuckyNftSwap.sol",
  "abi": [
    {
      "inputs": [
        {
          "internalType": "uint256",
          "name": "_poolCap",
          "type": "uint256"
        },
        {
          "internalType": "address[]",
          "name": "_allowedCollections",
          "type": "address[]"
        }
      ],
      "stateMutability": "nonpayable",
      "type": "constructor"
    },
    {
      "anonymous": false,
      "inputs": [
        {
          "indexed": false,
          "internalType": "address",
          "name": "",
          "type": "address"
        },
        {
          "indexed": false,
          "internalType": "address",
          "name": "_addColection",
          "type": "address"
        },
        {
          "indexed": false,
          "internalType": "uint256",
          "name": "tokenId",
          "type": "uint256"
        }
      ],
      "name": "BonusTokenDeposit",
      "type": "event"
    },
    {
      "anonymous": false,
      "inputs": [
        {
          "indexed": true,
          "internalType": "address",
          "name": "previousOwner",
          "type": "address"
        },
        {
          "indexed": true,
          "internalType": "address",
          "name": "newOwner",
          "type": "address"
        }
      ],
      "name": "OwnershipTransferred",
      "type": "event"
    },
    {
      "anonymous": false,
      "inputs": [
        {
          "indexed": false,
          "internalType": "uint256",
          "name": "_move",
          "type": "uint256"
        }
      ],
      "name": "Shifted",
      "type": "event"
    },
    {
      "anonymous": false,
      "inputs": [
        {
          "indexed": false,
          "internalType": "address",
          "name": "",
          "type": "address"
        },
        {
          "indexed": false,
          "internalType": "address",
          "name": "_addColection",
          "type": "address"
        },
        {
          "indexed": false,
          "internalType": "uint256",
          "name": "tokenId",
          "type": "uint256"
        }
      ],
      "name": "TokenDeposit",
      "type": "event"
    },
    {
      "anonymous": false,
      "inputs": [
        {
          "indexed": false,
          "internalType": "address",
          "name": "recipient",
          "type": "address"
        },
        {
          "indexed": false,
          "internalType": "address",
          "name": "_addColection",
          "type": "address"
        },
        {
          "indexed": false,
          "internalType": "uint256",
          "name": "tokenId",
          "type": "uint256"
        }
      ],
      "name": "TokenSend",
      "type": "event"
    },
    {
      "inputs": [
        {
          "internalType": "address",
          "name": "_addColection",
          "type": "address"
        },
        {
          "internalType": "uint256",
          "name": "_tokenId",
          "type": "uint256"
        }
      ],
      "name": "bonusDeposit",
      "outputs": [],
      "stateMutability": "nonpayable",
      "type": "function"
    },
    {
      "inputs": [
        {
          "internalType": "uint256",
          "name": "",
          "type": "uint256"
        }
      ],
      "name": "bonusDeposits",
      "outputs": [
        {
          "internalType": "address",
          "name": "nftContractAdcress",
          "type": "address"
        },
        {
          "internalType": "uint256",
          "name": "tokenId",
          "type": "uint256"
        }
      ],
      "stateMutability": "view",
      "type": "function"
    },
    {
      "inputs": [],
      "name": "counter",
      "outputs": [
        {
          "internalType": "uint256",
          "name": "",
          "type": "uint256"
        }
      ],
      "stateMutability": "view",
      "type": "function"
    },
    {
      "inputs": [
        {
          "internalType": "address",
          "name": "_addColection",
          "type": "address"
        },
        {
          "internalType": "uint256",
          "name": "_tokenId",
          "type": "uint256"
        }
      ],
      "name": "deposit",
      "outputs": [],
      "stateMutability": "nonpayable",
      "type": "function"
    },
    {
      "inputs": [
        {
          "internalType": "address",
          "name": "",
          "type": "address"
        }
      ],
      "name": "depositorCounterMap",
      "outputs": [
        {
          "internalType": "uint256",
          "name": "",
          "type": "uint256"
        }
      ],
      "stateMutability": "view",
      "type": "function"
    },
    {
      "inputs": [
        {
          "internalType": "uint256",
          "name": "",
          "type": "uint256"
        }
      ],
      "name": "deposits",
      "outputs": [
        {
          "internalType": "address",
          "name": "nftContractAdcress",
          "type": "address"
        },
        {
          "internalType": "uint256",
          "name": "tokenId",
          "type": "uint256"
        }
      ],
      "stateMutability": "view",
      "type": "function"
    },
    {
      "inputs": [
        {
          "internalType": "address",
          "name": "depositor",
          "type": "address"
        }
      ],
      "name": "getBonusDepositAfterShift",
      "outputs": [
        {
          "components": [
            {
              "internalType": "address",
              "name": "nftContractAdcress",
              "type": "address"
            },
            {
              "internalType": "uint256",
              "name": "tokenId",
              "type": "uint256"
            }
          ],
          "internalType": "struct LuckyNftSwap.Deposit",
          "name": "",
          "type": "tuple"
        }
      ],
      "stateMutability": "view",
      "type": "function"
    },
    {
      "inputs": [
        {
          "internalType": "address",
          "name": "depositor",
          "type": "address"
        }
      ],
      "name": "getDepositAfterShift",
      "outputs": [
        {
          "components": [
            {
              "internalType": "address",
              "name": "nftContractAdcress",
              "type": "address"
            },
            {
              "internalType": "uint256",
              "name": "tokenId",
              "type": "uint256"
            }
          ],
          "internalType": "struct LuckyNftSwap.Deposit",
          "name": "",
          "type": "tuple"
        }
      ],
      "stateMutability": "view",
      "type": "function"
    },
    {
      "inputs": [],
      "name": "getDeposits",
      "outputs": [
        {
          "components": [
            {
              "internalType": "address",
              "name": "nftContractAdcress",
              "type": "address"
            },
            {
              "internalType": "uint256",
              "name": "tokenId",
              "type": "uint256"
            }
          ],
          "internalType": "struct LuckyNftSwap.Deposit[]",
          "name": "",
          "type": "tuple[]"
        }
      ],
      "stateMutability": "view",
      "type": "function"
    },
    {
      "inputs": [
        {
          "internalType": "address",
          "name": "depositor",
          "type": "address"
        }
      ],
      "name": "getOriginalDeposit",
      "outputs": [
        {
          "components": [
            {
              "internalType": "address",
              "name": "nftContractAdcress",
              "type": "address"
            },
            {
              "internalType": "uint256",
              "name": "tokenId",
              "type": "uint256"
            }
          ],
          "internalType": "struct LuckyNftSwap.Deposit",
          "name": "",
          "type": "tuple"
        }
      ],
      "stateMutability": "view",
      "type": "function"
    },
    {
      "inputs": [],
      "name": "getallowedCollections",
      "outputs": [
        {
          "internalType": "address[]",
          "name": "",
          "type": "address[]"
        }
      ],
      "stateMutability": "view",
      "type": "function"
    },
    {
      "inputs": [],
      "name": "getbonusDeposits",
      "outputs": [
        {
          "components": [
            {
              "internalType": "address",
              "name": "nftContractAdcress",
              "type": "address"
            },
            {
              "internalType": "uint256",
              "name": "tokenId",
              "type": "uint256"
            }
          ],
          "internalType": "struct LuckyNftSwap.Deposit[]",
          "name": "",
          "type": "tuple[]"
        }
      ],
      "stateMutability": "view",
      "type": "function"
    },
    {
      "inputs": [
        {
          "internalType": "address",
          "name": "participant",
          "type": "address"
        }
      ],
      "name": "isGameEndedIsAddressDepositor",
      "outputs": [
        {
          "internalType": "bool",
          "name": "",
          "type": "bool"
        },
        {
          "internalType": "bool",
          "name": "",
          "type": "bool"
        }
      ],
      "stateMutability": "view",
      "type": "function"
    },
    {
      "inputs": [
        {
          "internalType": "address",
          "name": "operator",
          "type": "address"
        },
        {
          "internalType": "address",
          "name": "from",
          "type": "address"
        },
        {
          "internalType": "uint256",
          "name": "tokenId",
          "type": "uint256"
        },
        {
          "internalType": "bytes",
          "name": "data",
          "type": "bytes"
        }
      ],
      "name": "onERC721Received",
      "outputs": [
        {
          "internalType": "bytes4",
          "name": "",
          "type": "bytes4"
        }
      ],
      "stateMutability": "nonpayable",
      "type": "function"
    },
    {
      "inputs": [],
      "name": "owner",
      "outputs": [
        {
          "internalType": "address",
          "name": "",
          "type": "address"
        }
      ],
      "stateMutability": "view",
      "type": "function"
    },
    {
      "inputs": [],
      "name": "poolCap",
      "outputs": [
        {
          "internalType": "uint256",
          "name": "",
          "type": "uint256"
        }
      ],
      "stateMutability": "view",
      "type": "function"
    },
    {
      "inputs": [],
      "name": "renounceOwnership",
      "outputs": [],
      "stateMutability": "nonpayable",
      "type": "function"
    },
    {
      "inputs": [
        {
          "internalType": "uint256",
          "name": "_newCap",
          "type": "uint256"
        }
      ],
      "name": "setPoolCap",
      "outputs": [],
      "stateMutability": "nonpayable",
      "type": "function"
    },
    {
      "inputs": [],
      "name": "shift",
      "outputs": [],
      "stateMutability": "nonpayable",
      "type": "function"
    },
    {
      "inputs": [],
      "name": "shiftNumber",
      "outputs": [
        {
          "internalType": "uint256",
          "name": "",
          "type": "uint256"
        }
      ],
      "stateMutability": "view",
      "type": "function"
    },
    {
      "inputs": [
        {
          "internalType": "address",
          "name": "newOwner",
          "type": "address"
        }
      ],
      "name": "transferOwnership",
      "outputs": [],
      "stateMutability": "nonpayable",
      "type": "function"
    },
    {
      "inputs": [
        {
          "internalType": "address",
          "name": "depositor",
          "type": "address"
        }
      ],
      "name": "withdraw",
      "outputs": [],
      "stateMutability": "nonpayable",
      "type": "function"
    }
  ],
  "bytecode": "0x608060405260016004556000600760006101000a81548160ff0219169083151502179055503480156200003157600080fd5b50604051620028b2380380620028b2833981810160405281019062000057919062000442565b620000776200006b6200009f60201b60201c565b620000a760201b60201c565b816006819055508060089080519060200190620000969291906200016b565b505050620004a8565b600033905090565b60008060009054906101000a900473ffffffffffffffffffffffffffffffffffffffff169050816000806101000a81548173ffffffffffffffffffffffffffffffffffffffff021916908373ffffffffffffffffffffffffffffffffffffffff1602179055508173ffffffffffffffffffffffffffffffffffffffff168173ffffffffffffffffffffffffffffffffffffffff167f8be0079c531659141344cd1fd0a4f28419497f9722a3daafe3b4186f6b6457e060405160405180910390a35050565b828054828255906000526020600020908101928215620001e7579160200282015b82811115620001e65782518260006101000a81548173ffffffffffffffffffffffffffffffffffffffff021916908373ffffffffffffffffffffffffffffffffffffffff160217905550916020019190600101906200018c565b5b509050620001f69190620001fa565b5090565b5b8082111562000215576000816000905550600101620001fb565b5090565b6000604051905090565b600080fd5b600080fd5b6000819050919050565b62000242816200022d565b81146200024e57600080fd5b50565b600081519050620002628162000237565b92915050565b600080fd5b6000601f19601f8301169050919050565b7f4e487b7100000000000000000000000000000000000000000000000000000000600052604160045260246000fd5b620002b8826200026d565b810181811067ffffffffffffffff82111715620002da57620002d96200027e565b5b80604052505050565b6000620002ef62000219565b9050620002fd8282620002ad565b919050565b600067ffffffffffffffff82111562000320576200031f6200027e565b5b602082029050602081019050919050565b600080fd5b600073ffffffffffffffffffffffffffffffffffffffff82169050919050565b6000620003638262000336565b9050919050565b620003758162000356565b81146200038157600080fd5b50565b60008151905062000395816200036a565b92915050565b6000620003b2620003ac8462000302565b620002e3565b90508083825260208201905060208402830185811115620003d857620003d762000331565b5b835b81811015620004055780620003f0888262000384565b845260208401935050602081019050620003da565b5050509392505050565b600082601f83011262000427576200042662000268565b5b8151620004398482602086016200039b565b91505092915050565b600080604083850312156200045c576200045b62000223565b5b60006200046c8582860162000251565b925050602083015167ffffffffffffffff81111562000490576200048f62000228565b5b6200049e858286016200040f565b9150509250929050565b6123fa80620004b86000396000f3fe608060405234801561001057600080fd5b50600436106101425760003560e01c80636b149d87116100b8578063b7a28c431161007c578063b7a28c431461037c578063b954dc5714610398578063c984f43c146103b6578063d835f535146103e6578063f0c3e96414610402578063f2fde38b1461042057610142565b80636b149d87146102e7578063715018a614610305578063775939ab1461030f5780638da5cb5b1461032d578063b02c43d01461034b57610142565b80632d2df8271161010a5780632d2df8271461021357806347e7ef241461024357806350360c821461025f57806351cff8d91461027d5780635bd6baec1461029957806361bc221a146102c957610142565b806312fc41ca146101475780631427b00214610151578063150b7a021461018257806317d82c26146101b25780631e0fa1d1146101e3575b600080fd5b61014f61043c565b005b61016b600480360381019061016691906116fa565b61053c565b604051610179929190611777565b60405180910390f35b61019c60048036038101906101979190611831565b610590565b6040516101a991906118f4565b60405180910390f35b6101cc60048036038101906101c7919061190f565b6105be565b6040516101da929190611957565b60405180910390f35b6101fd60048036038101906101f8919061190f565b61061e565b60405161020a9190611980565b60405180910390f35b61022d6004803603810190610228919061190f565b610636565b60405161023a91906119e8565b60405180910390f35b61025d60048036038101906102589190611a03565b610765565b005b610267610b0b565b6040516102749190611b21565b60405180910390f35b6102976004803603810190610292919061190f565b610bca565b005b6102b360048036038101906102ae919061190f565b610cee565b6040516102c091906119e8565b60405180910390f35b6102d1610e32565b6040516102de9190611980565b60405180910390f35b6102ef610e38565b6040516102fc9190611b21565b60405180910390f35b61030d610ef7565b005b610317610f7f565b6040516103249190611bf2565b60405180910390f35b61033561100d565b6040516103429190611c14565b60405180910390f35b610365600480360381019061036091906116fa565b611036565b604051610373929190611777565b60405180910390f35b61039660048036038101906103919190611a03565b61108a565b005b6103a06112ac565b6040516103ad9190611980565b60405180910390f35b6103d060048036038101906103cb919061190f565b6112b2565b6040516103dd91906119e8565b60405180910390f35b61040060048036038101906103fb91906116fa565b6113f6565b005b61040a6114c1565b6040516104179190611980565b60405180910390f35b61043a6004803603810190610435919061190f565b6114c7565b005b6006546004541015610483576040517f08c379a000000000000000000000000000000000000000000000000000000000815260040161047a90611c8c565b60405180910390fd5b600760009054906101000a900460ff16156104d3576040517f08c379a00000000000000000000000000000000000000000000000000000000081526004016104ca90611cf8565b60405180910390fd5b6001436104e09190611d47565b6005819055506001600760006101000a81548160ff0219169083151502179055507fd591083b0df4eced712cb423801dd06dacf91f4eda45aa6254de9f0bc5df42c56005546040516105329190611980565b60405180910390a1565b6002818154811061054c57600080fd5b90600052602060002090600202016000915090508060000160009054906101000a900473ffffffffffffffffffffffffffffffffffffffff16908060010154905082565b60007f150b7a023d4804d13e8c85fb27262cb750cf6ba9f9dd3bb30d90f482ceeb4b1f905095945050505050565b600080600760009054906101000a900460ff166000600360008673ffffffffffffffffffffffffffffffffffffffff1673ffffffffffffffffffffffffffffffffffffffff16815260200190815260200160002054141591509150915091565b60036020528060005260406000206000915090505481565b61063e61168a565b6000600360008473ffffffffffffffffffffffffffffffffffffffff1673ffffffffffffffffffffffffffffffffffffffff168152602001908152602001600020549050600081036106c5576040517f08c379a00000000000000000000000000000000000000000000000000000000081526004016106bc90611dc7565b60405180910390fd5b600180826106d39190611d47565b815481106106e4576106e3611de7565b5b90600052602060002090600202016040518060400160405290816000820160009054906101000a900473ffffffffffffffffffffffffffffffffffffffff1673ffffffffffffffffffffffffffffffffffffffff1673ffffffffffffffffffffffffffffffffffffffff168152602001600182015481525050915050919050565b60065460045411156107ac576040517f08c379a00000000000000000000000000000000000000000000000000000000081526004016107a390611e62565b60405180910390fd5b8173ffffffffffffffffffffffffffffffffffffffff1660086000815481106107d8576107d7611de7565b5b9060005260206000200160009054906101000a900473ffffffffffffffffffffffffffffffffffffffff1673ffffffffffffffffffffffffffffffffffffffff16148061088f57508173ffffffffffffffffffffffffffffffffffffffff16600860018154811061084c5761084b611de7565b5b9060005260206000200160009054906101000a900473ffffffffffffffffffffffffffffffffffffffff1673ffffffffffffffffffffffffffffffffffffffff16145b6108ce576040517f08c379a00000000000000000000000000000000000000000000000000000000081526004016108c590611ece565b60405180910390fd5b6000600360003373ffffffffffffffffffffffffffffffffffffffff1673ffffffffffffffffffffffffffffffffffffffff1681526020019081526020016000205414610950576040517f08c379a000000000000000000000000000000000000000000000000000000000815260040161094790611f60565b60405180910390fd5b6000829050600160405180604001604052808573ffffffffffffffffffffffffffffffffffffffff16815260200184815250908060018154018082558091505060019003906000526020600020906002020160009091909190915060008201518160000160006101000a81548173ffffffffffffffffffffffffffffffffffffffff021916908373ffffffffffffffffffffffffffffffffffffffff160217905550602082015181600101555050600454600360003373ffffffffffffffffffffffffffffffffffffffff1673ffffffffffffffffffffffffffffffffffffffff1681526020019081526020016000208190555060046000815480929190610a5790611f80565b91905055508073ffffffffffffffffffffffffffffffffffffffff1663b88d4fde3330856040518463ffffffff1660e01b8152600401610a9993929190612025565b600060405180830381600087803b158015610ab357600080fd5b505af1158015610ac7573d6000803e3d6000fd5b505050507f98c09d9949722bae4bd0d988d4050091c3ae7ec6d51d3c6bbfe4233593944e9e338484604051610afe9392919061206f565b60405180910390a1505050565b60606002805480602002602001604051908101604052809291908181526020016000905b82821015610bc157838290600052602060002090600202016040518060400160405290816000820160009054906101000a900473ffffffffffffffffffffffffffffffffffffffff1673ffffffffffffffffffffffffffffffffffffffff1673ffffffffffffffffffffffffffffffffffffffff16815260200160018201548152505081526020019060010190610b2f565b50505050905090565b600760009054906101000a900460ff16610c19576040517f08c379a0000000000000000000000000000000000000000000000000000000008152600401610c10906120f2565b60405180910390fd5b6000610c2482610cee565b905060008160000151905060008190506000836020015190508173ffffffffffffffffffffffffffffffffffffffff1663b88d4fde3087846040518463ffffffff1660e01b8152600401610c7a93929190612025565b600060405180830381600087803b158015610c9457600080fd5b505af1158015610ca8573d6000803e3d6000fd5b505050507f010793bff862e09b4e26851caa636f0c6ca8c4065c8e319939d71ddca7cd1d16858483604051610cdf9392919061206f565b60405180910390a15050505050565b610cf661168a565b6000600360008473ffffffffffffffffffffffffffffffffffffffff1673ffffffffffffffffffffffffffffffffffffffff16815260200190815260200160002054905060008103610d7d576040517f08c379a0000000000000000000000000000000000000000000000000000000008152600401610d7490611dc7565b60405180910390fd5b600060065460055483610d909190612112565b610d9a9190612197565b905060018181548110610db057610daf611de7565b5b90600052602060002090600202016040518060400160405290816000820160009054906101000a900473ffffffffffffffffffffffffffffffffffffffff1673ffffffffffffffffffffffffffffffffffffffff1673ffffffffffffffffffffffffffffffffffffffff16815260200160018201548152505092505050919050565b60045481565b60606001805480602002602001604051908101604052809291908181526020016000905b82821015610eee57838290600052602060002090600202016040518060400160405290816000820160009054906101000a900473ffffffffffffffffffffffffffffffffffffffff1673ffffffffffffffffffffffffffffffffffffffff1673ffffffffffffffffffffffffffffffffffffffff16815260200160018201548152505081526020019060010190610e5c565b50505050905090565b610eff6115be565b73ffffffffffffffffffffffffffffffffffffffff16610f1d61100d565b73ffffffffffffffffffffffffffffffffffffffff1614610f73576040517f08c379a0000000000000000000000000000000000000000000000000000000008152600401610f6a90612214565b60405180910390fd5b610f7d60006115c6565b565b6060600880548060200260200160405190810160405280929190818152602001828054801561100357602002820191906000526020600020905b8160009054906101000a900473ffffffffffffffffffffffffffffffffffffffff1673ffffffffffffffffffffffffffffffffffffffff1681526020019060010190808311610fb9575b5050505050905090565b60008060009054906101000a900473ffffffffffffffffffffffffffffffffffffffff16905090565b6001818154811061104657600080fd5b90600052602060002090600202016000915090508060000160009054906101000a900473ffffffffffffffffffffffffffffffffffffffff16908060010154905082565b6110926115be565b73ffffffffffffffffffffffffffffffffffffffff166110b061100d565b73ffffffffffffffffffffffffffffffffffffffff1614611106576040517f08c379a00000000000000000000000000000000000000000000000000000000081526004016110fd90612214565b60405180910390fd5b6006546002805490501061114f576040517f08c379a0000000000000000000000000000000000000000000000000000000008152600401611146906122a6565b60405180910390fd5b6000829050600260405180604001604052808573ffffffffffffffffffffffffffffffffffffffff16815260200184815250908060018154018082558091505060019003906000526020600020906002020160009091909190915060008201518160000160006101000a81548173ffffffffffffffffffffffffffffffffffffffff021916908373ffffffffffffffffffffffffffffffffffffffff1602179055506020820151816001015550508073ffffffffffffffffffffffffffffffffffffffff1663b88d4fde3330856040518463ffffffff1660e01b815260040161123a93929190612025565b600060405180830381600087803b15801561125457600080fd5b505af1158015611268573d6000803e3d6000fd5b505050507fe3cfffc010e1967b732bc83475b06a865fe09f42e6f9336e3210c2b495041ef533848460405161129f9392919061206f565b60405180910390a1505050565b60065481565b6112ba61168a565b6000600360008473ffffffffffffffffffffffffffffffffffffffff1673ffffffffffffffffffffffffffffffffffffffff16815260200190815260200160002054905060008103611341576040517f08c379a000000000000000000000000000000000000000000000000000000000815260040161133890611dc7565b60405180910390fd5b6000600654600554836113549190612112565b61135e9190612197565b90506002818154811061137457611373611de7565b5b90600052602060002090600202016040518060400160405290816000820160009054906101000a900473ffffffffffffffffffffffffffffffffffffffff1673ffffffffffffffffffffffffffffffffffffffff1673ffffffffffffffffffffffffffffffffffffffff16815260200160018201548152505092505050919050565b6113fe6115be565b73ffffffffffffffffffffffffffffffffffffffff1661141c61100d565b73ffffffffffffffffffffffffffffffffffffffff1614611472576040517f08c379a000000000000000000000000000000000000000000000000000000000815260040161146990612214565b60405180910390fd5b6004548110156114b7576040517f08c379a00000000000000000000000000000000000000000000000000000000081526004016114ae90612312565b60405180910390fd5b8060068190555050565b60055481565b6114cf6115be565b73ffffffffffffffffffffffffffffffffffffffff166114ed61100d565b73ffffffffffffffffffffffffffffffffffffffff1614611543576040517f08c379a000000000000000000000000000000000000000000000000000000000815260040161153a90612214565b60405180910390fd5b600073ffffffffffffffffffffffffffffffffffffffff168173ffffffffffffffffffffffffffffffffffffffff16036115b2576040517f08c379a00000000000000000000000000000000000000000000000000000000081526004016115a9906123a4565b60405180910390fd5b6115bb816115c6565b50565b600033905090565b60008060009054906101000a900473ffffffffffffffffffffffffffffffffffffffff169050816000806101000a81548173ffffffffffffffffffffffffffffffffffffffff021916908373ffffffffffffffffffffffffffffffffffffffff1602179055508173ffffffffffffffffffffffffffffffffffffffff168173ffffffffffffffffffffffffffffffffffffffff167f8be0079c531659141344cd1fd0a4f28419497f9722a3daafe3b4186f6b6457e060405160405180910390a35050565b6040518060400160405280600073ffffffffffffffffffffffffffffffffffffffff168152602001600081525090565b600080fd5b600080fd5b6000819050919050565b6116d7816116c4565b81146116e257600080fd5b50565b6000813590506116f4816116ce565b92915050565b6000602082840312156117105761170f6116ba565b5b600061171e848285016116e5565b91505092915050565b600073ffffffffffffffffffffffffffffffffffffffff82169050919050565b600061175282611727565b9050919050565b61176281611747565b82525050565b611771816116c4565b82525050565b600060408201905061178c6000830185611759565b6117996020830184611768565b9392505050565b6117a981611747565b81146117b457600080fd5b50565b6000813590506117c6816117a0565b92915050565b600080fd5b600080fd5b600080fd5b60008083601f8401126117f1576117f06117cc565b5b8235905067ffffffffffffffff81111561180e5761180d6117d1565b5b60208301915083600182028301111561182a576118296117d6565b5b9250929050565b60008060008060006080868803121561184d5761184c6116ba565b5b600061185b888289016117b7565b955050602061186c888289016117b7565b945050604061187d888289016116e5565b935050606086013567ffffffffffffffff81111561189e5761189d6116bf565b5b6118aa888289016117db565b92509250509295509295909350565b60007fffffffff0000000000000000000000000000000000000000000000000000000082169050919050565b6118ee816118b9565b82525050565b600060208201905061190960008301846118e5565b92915050565b600060208284031215611925576119246116ba565b5b6000611933848285016117b7565b91505092915050565b60008115159050919050565b6119518161193c565b82525050565b600060408201905061196c6000830185611948565b6119796020830184611948565b9392505050565b60006020820190506119956000830184611768565b92915050565b6119a481611747565b82525050565b6119b3816116c4565b82525050565b6040820160008201516119cf600085018261199b565b5060208201516119e260208501826119aa565b50505050565b60006040820190506119fd60008301846119b9565b92915050565b60008060408385031215611a1a57611a196116ba565b5b6000611a28858286016117b7565b9250506020611a39858286016116e5565b9150509250929050565b600081519050919050565b600082825260208201905092915050565b6000819050602082019050919050565b604082016000820151611a85600085018261199b565b506020820151611a9860208501826119aa565b50505050565b6000611aaa8383611a6f565b60408301905092915050565b6000602082019050919050565b6000611ace82611a43565b611ad88185611a4e565b9350611ae383611a5f565b8060005b83811015611b14578151611afb8882611a9e565b9750611b0683611ab6565b925050600181019050611ae7565b5085935050505092915050565b60006020820190508181036000830152611b3b8184611ac3565b905092915050565b600081519050919050565b600082825260208201905092915050565b6000819050602082019050919050565b6000611b7b838361199b565b60208301905092915050565b6000602082019050919050565b6000611b9f82611b43565b611ba98185611b4e565b9350611bb483611b5f565b8060005b83811015611be5578151611bcc8882611b6f565b9750611bd783611b87565b925050600181019050611bb8565b5085935050505092915050565b60006020820190508181036000830152611c0c8184611b94565b905092915050565b6000602082019050611c296000830184611759565b92915050565b600082825260208201905092915050565b7f4e65656420746f206465706f736974206d6f7265206e66747300000000000000600082015250565b6000611c76601983611c2f565b9150611c8182611c40565b602082019050919050565b60006020820190508181036000830152611ca581611c69565b9050919050565b7f4c75636b79207377617020616c726561647920656e6465640000000000000000600082015250565b6000611ce2601883611c2f565b9150611ced82611cac565b602082019050919050565b60006020820190508181036000830152611d1181611cd5565b9050919050565b7f4e487b7100000000000000000000000000000000000000000000000000000000600052601160045260246000fd5b6000611d52826116c4565b9150611d5d836116c4565b925082821015611d7057611d6f611d18565b5b828203905092915050565b7f4e6f206465706f73697420666f72206164647265737320666f756e6400000000600082015250565b6000611db1601c83611c2f565b9150611dbc82611d7b565b602082019050919050565b60006020820190508181036000830152611de081611da4565b9050919050565b7f4e487b7100000000000000000000000000000000000000000000000000000000600052603260045260246000fd5b7f506f6f6c2069732066756c6c0000000000000000000000000000000000000000600082015250565b6000611e4c600c83611c2f565b9150611e5782611e16565b602082019050919050565b60006020820190508181036000830152611e7b81611e3f565b9050919050565b7f4e465420436f6c6c656374696f6e206973206e6f7420416c6c6f776564000000600082015250565b6000611eb8601d83611c2f565b9150611ec382611e82565b602082019050919050565b60006020820190508181036000830152611ee781611eab565b9050919050565b7f4465706f7369742066726f6d2074686973206164647265737320616c7265616460008201527f79206d6164650000000000000000000000000000000000000000000000000000602082015250565b6000611f4a602683611c2f565b9150611f5582611eee565b604082019050919050565b60006020820190508181036000830152611f7981611f3d565b9050919050565b6000611f8b826116c4565b91507fffffffffffffffffffffffffffffffffffffffffffffffffffffffffffffffff8203611fbd57611fbc611d18565b5b600182019050919050565b600082825260208201905092915050565b7f3078303000000000000000000000000000000000000000000000000000000000600082015250565b600061200f600483611fc8565b915061201a82611fd9565b602082019050919050565b600060808201905061203a6000830186611759565b6120476020830185611759565b6120546040830184611768565b818103606083015261206581612002565b9050949350505050565b60006060820190506120846000830186611759565b6120916020830185611759565b61209e6040830184611768565b949350505050565b7f4c75636b79207377617020696e2070726f6f6772657373000000000000000000600082015250565b60006120dc601783611c2f565b91506120e7826120a6565b602082019050919050565b6000602082019050818103600083015261210b816120cf565b9050919050565b600061211d826116c4565b9150612128836116c4565b9250827fffffffffffffffffffffffffffffffffffffffffffffffffffffffffffffffff0382111561215d5761215c611d18565b5b828201905092915050565b7f4e487b7100000000000000000000000000000000000000000000000000000000600052601260045260246000fd5b60006121a2826116c4565b91506121ad836116c4565b9250826121bd576121bc612168565b5b828206905092915050565b7f4f776e61626c653a2063616c6c6572206973206e6f7420746865206f776e6572600082015250565b60006121fe602083611c2f565b9150612209826121c8565b602082019050919050565b6000602082019050818103600083015261222d816121f1565b9050919050565b7f6d756d626572206f6620626f6e757320746f6b656e73206e65656420746f206260008201527f65206c6f776572207468616e20706f6f6c436170000000000000000000000000602082015250565b6000612290603483611c2f565b915061229b82612234565b604082019050919050565b600060208201905081810360008301526122bf81612283565b9050919050565b7f4e657720636170206d757374206265203e20636f756e74657200000000000000600082015250565b60006122fc601983611c2f565b9150612307826122c6565b602082019050919050565b6000602082019050818103600083015261232b816122ef565b9050919050565b7f4f776e61626c653a206e6577206f776e657220697320746865207a65726f206160008201527f6464726573730000000000000000000000000000000000000000000000000000602082015250565b600061238e602683611c2f565b915061239982612332565b604082019050919050565b600060208201905081810360008301526123bd81612381565b905091905056fea2646970667358221220ca7abcfce5593779282fdbf66a616790bac84bae4b4cfe3b16ee2424025f000b64736f6c634300080e0033",
  "linkReferences": {},
  "deployedLinkReferences": {}
}